{
  "contractName": "CryptoCrewz",
  "abi": [
    {
      "inputs": [
        {
          "internalType": "string",
          "name": "baseURI",
          "type": "string"
        }
      ],
      "stateMutability": "nonpayable",
      "type": "constructor"
    },
    {
      "anonymous": false,
      "inputs": [
        {
          "indexed": true,
          "internalType": "address",
          "name": "owner",
          "type": "address"
        },
        {
          "indexed": true,
          "internalType": "address",
          "name": "approved",
          "type": "address"
        },
        {
          "indexed": true,
          "internalType": "uint256",
          "name": "tokenId",
          "type": "uint256"
        }
      ],
      "name": "Approval",
      "type": "event"
    },
    {
      "anonymous": false,
      "inputs": [
        {
          "indexed": true,
          "internalType": "address",
          "name": "owner",
          "type": "address"
        },
        {
          "indexed": true,
          "internalType": "address",
          "name": "operator",
          "type": "address"
        },
        {
          "indexed": false,
          "internalType": "bool",
          "name": "approved",
          "type": "bool"
        }
      ],
      "name": "ApprovalForAll",
      "type": "event"
    },
    {
      "anonymous": false,
      "inputs": [
        {
          "indexed": false,
          "internalType": "uint256",
          "name": "tokenId",
          "type": "uint256"
        },
        {
          "indexed": false,
          "internalType": "address",
          "name": "sender",
          "type": "address"
        }
      ],
      "name": "AssetMinted",
      "type": "event"
    },
    {
      "anonymous": false,
      "inputs": [
        {
          "indexed": true,
          "internalType": "address",
          "name": "previousOwner",
          "type": "address"
        },
        {
          "indexed": true,
          "internalType": "address",
          "name": "newOwner",
          "type": "address"
        }
      ],
      "name": "OwnershipTransferred",
      "type": "event"
    },
    {
      "anonymous": false,
      "inputs": [
        {
          "indexed": false,
          "internalType": "bool",
          "name": "isActive",
          "type": "bool"
        }
      ],
      "name": "SaleActivation",
      "type": "event"
    },
    {
      "anonymous": false,
      "inputs": [
        {
          "indexed": true,
          "internalType": "address",
          "name": "from",
          "type": "address"
        },
        {
          "indexed": true,
          "internalType": "address",
          "name": "to",
          "type": "address"
        },
        {
          "indexed": true,
          "internalType": "uint256",
          "name": "tokenId",
          "type": "uint256"
        }
      ],
      "name": "Transfer",
      "type": "event"
    },
    {
      "inputs": [],
      "name": "allowListMaxMint",
      "outputs": [
        {
          "internalType": "uint256",
          "name": "",
          "type": "uint256"
        }
      ],
      "stateMutability": "view",
      "type": "function"
    },
    {
      "inputs": [
        {
          "internalType": "address",
          "name": "to",
          "type": "address"
        },
        {
          "internalType": "uint256",
          "name": "tokenId",
          "type": "uint256"
        }
      ],
      "name": "approve",
      "outputs": [],
      "stateMutability": "nonpayable",
      "type": "function"
    },
    {
      "inputs": [
        {
          "internalType": "address",
          "name": "owner",
          "type": "address"
        }
      ],
      "name": "balanceOf",
      "outputs": [
        {
          "internalType": "uint256",
          "name": "",
          "type": "uint256"
        }
      ],
      "stateMutability": "view",
      "type": "function"
    },
    {
      "inputs": [
        {
          "internalType": "uint256",
          "name": "tokenId",
          "type": "uint256"
        }
      ],
      "name": "getApproved",
      "outputs": [
        {
          "internalType": "address",
          "name": "",
          "type": "address"
        }
      ],
      "stateMutability": "view",
      "type": "function"
    },
    {
      "inputs": [],
      "name": "isActive",
      "outputs": [
        {
          "internalType": "bool",
          "name": "",
          "type": "bool"
        }
      ],
      "stateMutability": "view",
      "type": "function"
    },
    {
      "inputs": [],
      "name": "isAllowListActive",
      "outputs": [
        {
          "internalType": "bool",
          "name": "",
          "type": "bool"
        }
      ],
      "stateMutability": "view",
      "type": "function"
    },
    {
      "inputs": [
        {
          "internalType": "address",
          "name": "owner",
          "type": "address"
        },
        {
          "internalType": "address",
          "name": "operator",
          "type": "address"
        }
      ],
      "name": "isApprovedForAll",
      "outputs": [
        {
          "internalType": "bool",
          "name": "",
          "type": "bool"
        }
      ],
      "stateMutability": "view",
      "type": "function"
    },
    {
      "inputs": [],
      "name": "maximumAllowedTokensPerPurchase",
      "outputs": [
        {
          "internalType": "uint256",
          "name": "",
          "type": "uint256"
        }
      ],
      "stateMutability": "view",
      "type": "function"
    },
    {
      "inputs": [],
      "name": "maximumAllowedTokensPerWallet",
      "outputs": [
        {
          "internalType": "uint256",
          "name": "",
          "type": "uint256"
        }
      ],
      "stateMutability": "view",
      "type": "function"
    },
    {
      "inputs": [],
      "name": "maximumMintSupply",
      "outputs": [
        {
          "internalType": "uint256",
          "name": "",
          "type": "uint256"
        }
      ],
      "stateMutability": "view",
      "type": "function"
    },
    {
      "inputs": [],
      "name": "mintPrice",
      "outputs": [
        {
          "internalType": "uint256",
          "name": "",
          "type": "uint256"
        }
      ],
      "stateMutability": "view",
      "type": "function"
    },
    {
      "inputs": [],
      "name": "name",
      "outputs": [
        {
          "internalType": "string",
          "name": "",
          "type": "string"
        }
      ],
      "stateMutability": "view",
      "type": "function"
    },
    {
      "inputs": [],
      "name": "owner",
      "outputs": [
        {
          "internalType": "address",
          "name": "",
          "type": "address"
        }
      ],
      "stateMutability": "view",
      "type": "function"
    },
    {
      "inputs": [
        {
          "internalType": "uint256",
          "name": "tokenId",
          "type": "uint256"
        }
      ],
      "name": "ownerOf",
      "outputs": [
        {
          "internalType": "address",
          "name": "",
          "type": "address"
        }
      ],
      "stateMutability": "view",
      "type": "function"
    },
    {
      "inputs": [],
      "name": "renounceOwnership",
      "outputs": [],
      "stateMutability": "nonpayable",
      "type": "function"
    },
    {
      "inputs": [
        {
          "internalType": "address",
          "name": "from",
          "type": "address"
        },
        {
          "internalType": "address",
          "name": "to",
          "type": "address"
        },
        {
          "internalType": "uint256",
          "name": "tokenId",
          "type": "uint256"
        }
      ],
      "name": "safeTransferFrom",
      "outputs": [],
      "stateMutability": "nonpayable",
      "type": "function"
    },
    {
      "inputs": [
        {
          "internalType": "address",
          "name": "from",
          "type": "address"
        },
        {
          "internalType": "address",
          "name": "to",
          "type": "address"
        },
        {
          "internalType": "uint256",
          "name": "tokenId",
          "type": "uint256"
        },
        {
          "internalType": "bytes",
          "name": "_data",
          "type": "bytes"
        }
      ],
      "name": "safeTransferFrom",
      "outputs": [],
      "stateMutability": "nonpayable",
      "type": "function"
    },
    {
      "inputs": [
        {
          "internalType": "address",
          "name": "operator",
          "type": "address"
        },
        {
          "internalType": "bool",
          "name": "approved",
          "type": "bool"
        }
      ],
      "name": "setApprovalForAll",
      "outputs": [],
      "stateMutability": "nonpayable",
      "type": "function"
    },
    {
      "inputs": [
        {
          "internalType": "bytes4",
          "name": "interfaceId",
          "type": "bytes4"
        }
      ],
      "name": "supportsInterface",
      "outputs": [
        {
          "internalType": "bool",
          "name": "",
          "type": "bool"
        }
      ],
      "stateMutability": "view",
      "type": "function"
    },
    {
      "inputs": [],
      "name": "symbol",
      "outputs": [
        {
          "internalType": "string",
          "name": "",
          "type": "string"
        }
      ],
      "stateMutability": "view",
      "type": "function"
    },
    {
      "inputs": [
        {
          "internalType": "uint256",
          "name": "index",
          "type": "uint256"
        }
      ],
      "name": "tokenByIndex",
      "outputs": [
        {
          "internalType": "uint256",
          "name": "",
          "type": "uint256"
        }
      ],
      "stateMutability": "view",
      "type": "function"
    },
    {
      "inputs": [
        {
          "internalType": "address",
          "name": "owner",
          "type": "address"
        },
        {
          "internalType": "uint256",
          "name": "index",
          "type": "uint256"
        }
      ],
      "name": "tokenOfOwnerByIndex",
      "outputs": [
        {
          "internalType": "uint256",
          "name": "",
          "type": "uint256"
        }
      ],
      "stateMutability": "view",
      "type": "function"
    },
    {
      "inputs": [
        {
          "internalType": "uint256",
          "name": "tokenId",
          "type": "uint256"
        }
      ],
      "name": "tokenURI",
      "outputs": [
        {
          "internalType": "string",
          "name": "",
          "type": "string"
        }
      ],
      "stateMutability": "view",
      "type": "function"
    },
    {
      "inputs": [],
      "name": "totalSupply",
      "outputs": [
        {
          "internalType": "uint256",
          "name": "",
          "type": "uint256"
        }
      ],
      "stateMutability": "view",
      "type": "function"
    },
    {
      "inputs": [
        {
          "internalType": "address",
          "name": "from",
          "type": "address"
        },
        {
          "internalType": "address",
          "name": "to",
          "type": "address"
        },
        {
          "internalType": "uint256",
          "name": "tokenId",
          "type": "uint256"
        }
      ],
      "name": "transferFrom",
      "outputs": [],
      "stateMutability": "nonpayable",
      "type": "function"
    },
    {
      "inputs": [
        {
          "internalType": "address",
          "name": "newOwner",
          "type": "address"
        }
      ],
      "name": "transferOwnership",
      "outputs": [],
      "stateMutability": "nonpayable",
      "type": "function"
    },
    {
      "inputs": [
        {
          "internalType": "uint256",
          "name": "_count",
          "type": "uint256"
        }
      ],
      "name": "setMaximumAllowedTokens",
      "outputs": [],
      "stateMutability": "nonpayable",
      "type": "function"
    },
    {
      "inputs": [
        {
          "internalType": "uint256",
          "name": "_count",
          "type": "uint256"
        }
      ],
      "name": "setMaximumAllowedTokensPerWallet",
      "outputs": [],
      "stateMutability": "nonpayable",
      "type": "function"
    },
    {
      "inputs": [
        {
          "internalType": "bool",
          "name": "val",
          "type": "bool"
        }
      ],
      "name": "setActive",
      "outputs": [],
      "stateMutability": "nonpayable",
      "type": "function"
    },
    {
      "inputs": [
        {
          "internalType": "uint256",
          "name": "maxMintSupply",
          "type": "uint256"
        }
      ],
      "name": "setMaxMintSupply",
      "outputs": [],
      "stateMutability": "nonpayable",
      "type": "function"
    },
    {
      "inputs": [
        {
          "internalType": "bool",
          "name": "_isAllowListActive",
          "type": "bool"
        }
      ],
      "name": "setIsAllowListActive",
      "outputs": [],
      "stateMutability": "nonpayable",
      "type": "function"
    },
    {
      "inputs": [
        {
          "internalType": "uint256",
          "name": "maxMint",
          "type": "uint256"
        }
      ],
      "name": "setAllowListMaxMint",
      "outputs": [],
      "stateMutability": "nonpayable",
      "type": "function"
    },
    {
      "inputs": [
        {
          "internalType": "address[]",
          "name": "addresses",
          "type": "address[]"
        }
      ],
      "name": "addToAllowList",
      "outputs": [],
      "stateMutability": "nonpayable",
      "type": "function"
    },
    {
      "inputs": [
        {
          "internalType": "address",
          "name": "addr",
          "type": "address"
        }
      ],
      "name": "checkIfOnAllowList",
      "outputs": [
        {
          "internalType": "bool",
          "name": "",
          "type": "bool"
        }
      ],
      "stateMutability": "view",
      "type": "function"
    },
    {
      "inputs": [
        {
          "internalType": "address[]",
          "name": "addresses",
          "type": "address[]"
        }
      ],
      "name": "removeFromAllowList",
      "outputs": [],
      "stateMutability": "nonpayable",
      "type": "function"
    },
    {
      "inputs": [
        {
          "internalType": "address",
          "name": "owner",
          "type": "address"
        }
      ],
      "name": "allowListClaimedBy",
      "outputs": [
        {
          "internalType": "uint256",
          "name": "",
          "type": "uint256"
        }
      ],
      "stateMutability": "view",
      "type": "function"
    },
    {
      "inputs": [
        {
          "internalType": "uint256",
          "name": "val",
          "type": "uint256"
        }
      ],
      "name": "setReserveAtATime",
      "outputs": [],
      "stateMutability": "nonpayable",
      "type": "function"
    },
    {
      "inputs": [
        {
          "internalType": "uint256",
          "name": "val",
          "type": "uint256"
        }
      ],
      "name": "setMaxReserve",
      "outputs": [],
      "stateMutability": "nonpayable",
      "type": "function"
    },
    {
      "inputs": [
        {
          "internalType": "uint256",
          "name": "_price",
          "type": "uint256"
        }
      ],
      "name": "setPrice",
      "outputs": [],
      "stateMutability": "nonpayable",
      "type": "function"
    },
    {
      "inputs": [
        {
          "internalType": "string",
          "name": "baseURI",
          "type": "string"
        }
      ],
      "name": "setBaseURI",
      "outputs": [],
      "stateMutability": "nonpayable",
      "type": "function"
    },
    {
      "inputs": [],
      "name": "getMaximumAllowedTokens",
      "outputs": [
        {
          "internalType": "uint256",
          "name": "",
          "type": "uint256"
        }
      ],
      "stateMutability": "view",
      "type": "function"
    },
    {
      "inputs": [],
      "name": "getPrice",
      "outputs": [
        {
          "internalType": "uint256",
          "name": "",
          "type": "uint256"
        }
      ],
      "stateMutability": "view",
      "type": "function"
    },
    {
      "inputs": [],
      "name": "getReserveAtATime",
      "outputs": [
        {
          "internalType": "uint256",
          "name": "",
          "type": "uint256"
        }
      ],
      "stateMutability": "view",
      "type": "function"
    },
    {
      "inputs": [],
      "name": "getTotalSupply",
      "outputs": [
        {
          "internalType": "uint256",
          "name": "",
          "type": "uint256"
        }
      ],
      "stateMutability": "view",
      "type": "function"
    },
    {
      "inputs": [],
      "name": "getContractOwner",
      "outputs": [
        {
          "internalType": "address",
          "name": "",
          "type": "address"
        }
      ],
      "stateMutability": "view",
      "type": "function"
    },
    {
      "inputs": [],
      "name": "reserveNft",
      "outputs": [],
      "stateMutability": "nonpayable",
      "type": "function"
    },
    {
      "inputs": [
        {
          "internalType": "address",
          "name": "_walletAddress",
          "type": "address"
        },
        {
          "internalType": "uint256",
          "name": "_count",
          "type": "uint256"
        }
      ],
      "name": "reserveToCustomWallet",
      "outputs": [],
      "stateMutability": "nonpayable",
      "type": "function"
    },
    {
      "inputs": [
        {
          "internalType": "address",
          "name": "_to",
          "type": "address"
        },
        {
          "internalType": "uint256",
          "name": "_count",
          "type": "uint256"
        }
      ],
      "name": "mint",
      "outputs": [],
      "stateMutability": "payable",
      "type": "function"
    },
    {
      "inputs": [
        {
          "internalType": "uint256",
          "name": "_count",
          "type": "uint256"
        },
        {
          "internalType": "address[]",
          "name": "addresses",
          "type": "address[]"
        }
      ],
      "name": "batchReserveToMultipleAddresses",
      "outputs": [],
      "stateMutability": "nonpayable",
      "type": "function"
    },
    {
      "inputs": [
        {
          "internalType": "uint256",
          "name": "_count",
          "type": "uint256"
        }
      ],
      "name": "preSaleMint",
      "outputs": [],
      "stateMutability": "payable",
      "type": "function"
    },
    {
      "inputs": [
        {
          "internalType": "address",
          "name": "_owner",
          "type": "address"
        }
      ],
      "name": "walletOfOwner",
      "outputs": [
        {
          "internalType": "uint256[]",
          "name": "",
          "type": "uint256[]"
        }
      ],
      "stateMutability": "view",
      "type": "function"
    },
    {
      "inputs": [],
      "name": "withdraw",
      "outputs": [],
      "stateMutability": "nonpayable",
      "type": "function"
    }
  ],
  "bytecode": "0x608060405266b1a2bc2ec50000600b556023600c556000600d556103e8600e55600f80546001600160a01b03191673678c4405abdfbfab26dbc55f615e2b924d6e74911790556011805461ffff19169055612710601255600a601381905560148190556015553480156200007257600080fd5b50604051620037643803806200376483398101604081905262000095916200026b565b604080518082018252600c81526b21b93cb83a379021b932bbbd60a11b602080830191825283518085019094526002845261434360f01b908401528151919291620000e391600091620001c5565b508051620000f9906001906020840190620001c5565b50505062000116620001106200012860201b60201c565b6200012c565b62000121816200017e565b506200038d565b3390565b600a80546001600160a01b038381166001600160a01b0319831681179093556040519116919082907f8be0079c531659141344cd1fd0a4f28419497f9722a3daafe3b4186f6b6457e090600090a35050565b3362000189620001b6565b6001600160a01b0316146200019d57600080fd5b8051620001b2906010906020840190620001c5565b5050565b600a546001600160a01b031690565b828054620001d3906200033a565b90600052602060002090601f016020900481019282620001f7576000855562000242565b82601f106200021257805160ff191683800117855562000242565b8280016001018555821562000242579182015b828111156200024257825182559160200191906001019062000225565b506200025092915062000254565b5090565b5b8082111562000250576000815560010162000255565b600060208083850312156200027e578182fd5b82516001600160401b038082111562000295578384fd5b818501915085601f830112620002a9578384fd5b815181811115620002be57620002be62000377565b604051601f8201601f1916810185018381118282101715620002e457620002e462000377565b6040528181528382018501881015620002fb578586fd5b8592505b818310156200031e5783830185015181840186015291840191620002ff565b818311156200032f57858583830101525b979650505050505050565b6002810460018216806200034f57607f821691505b602082108114156200037157634e487b7160e01b600052602260045260246000fd5b50919050565b634e487b7160e01b600052604160045260246000fd5b6133c7806200039d6000396000f3fe6080604052600436106102fe5760003560e01c806371e3500c11610190578063a51312c8116100dc578063cadf881811610095578063e985e9c51161006f578063e985e9c514610864578063ea6eb83614610884578063f2fde38b146108a4578063f6c9d9e3146108c4576102fe565b8063cadf88181461081a578063e7b62d961461082f578063e82b2a7114610844576102fe565b8063a51312c814610770578063acec338a14610790578063ad06d758146107b0578063b88d4fde146107c5578063c4e41b22146107e5578063c87b56dd146107fa576102fe565b80637f44ab2f1161014957806395d89b411161012357806395d89b411461071157806398d5fdca146107265780639a3bf7281461073b578063a22cb46514610750576102fe565b80637f44ab2f146106c75780638da5cb5b146106dc57806391b7f5ed146106f1576102fe565b806371e3500c1461061f5780637263cfe2146106345780637389fbb71461065457806377b501b9146106745780637835c635146106945780637a6685f1146106a7576102fe565b806342842e0e1161024f57806355f804b3116102085780636817c76c116101e25780636817c76c146105b557806370a08231146105ca578063715018a6146105ea578063718bc4af146105ff576102fe565b806355f804b31461055557806356a87caa146105755780636352211e14610595576102fe565b806342842e0e1461049e578063438b6300146104be578063442890d5146104eb5780634d0550de146105005780634dfea627146105155780634f6ccce714610535576102fe565b806322f3e2d4116102bc5780632c1205f4116102965780632c1205f4146104365780632f745c59146104565780633ccfd60b1461047657806340c10f191461048b576102fe565b806322f3e2d4146103ec57806323b872dd1461040157806329fc6bae14610421576102fe565b806208ffdd1461030357806301ffc9a71461033957806306fdde0314610366578063081812fc14610388578063095ea7b3146103b557806318160ddd146103d7575b600080fd5b34801561030f57600080fd5b5061032361031e366004612652565b6108e4565b6040516103309190613201565b60405180910390f35b34801561034557600080fd5b506103596103543660046127fe565b610935565b60405161033091906129ce565b34801561037257600080fd5b5061037b610960565b60405161033091906129d9565b34801561039457600080fd5b506103a86103a336600461287c565b6109f2565b6040516103309190612939565b3480156103c157600080fd5b506103d56103d036600461277b565b610a35565b005b3480156103e357600080fd5b50610323610acd565b3480156103f857600080fd5b50610359610ad3565b34801561040d57600080fd5b506103d561041c36600461269e565b610adc565b34801561042d57600080fd5b50610359610b14565b34801561044257600080fd5b50610359610451366004612652565b610b22565b34801561046257600080fd5b5061032361047136600461277b565b610b40565b34801561048257600080fd5b506103d5610b92565b6103d561049936600461277b565b610c45565b3480156104aa57600080fd5b506103d56104b936600461269e565b610e0d565b3480156104ca57600080fd5b506104de6104d9366004612652565b610e28565b604051610330919061298a565b3480156104f757600080fd5b506103a8610ee6565b34801561050c57600080fd5b50610323610ef5565b34801561052157600080fd5b506103d561053036600461287c565b610efb565b34801561054157600080fd5b5061032361055036600461287c565b610f1c565b34801561056157600080fd5b506103d5610570366004612836565b610f77565b34801561058157600080fd5b506103d561059036600461287c565b610fa6565b3480156105a157600080fd5b506103a86105b036600461287c565b610fc7565b3480156105c157600080fd5b50610323610ffc565b3480156105d657600080fd5b506103236105e5366004612652565b611002565b3480156105f657600080fd5b506103d5611046565b34801561060b57600080fd5b506103d561061a3660046127e4565b611091565b34801561062b57600080fd5b506103d56110c7565b34801561064057600080fd5b506103d561064f3660046127a4565b611186565b34801561066057600080fd5b506103d561066f36600461287c565b611344565b34801561068057600080fd5b506103d561068f36600461277b565b611365565b6103d56106a236600461287c565b6113d8565b3480156106b357600080fd5b506103d56106c236600461287c565b611587565b3480156106d357600080fd5b506103236115a8565b3480156106e857600080fd5b506103a86115ae565b3480156106fd57600080fd5b506103d561070c36600461287c565b6115bd565b34801561071d57600080fd5b5061037b6115de565b34801561073257600080fd5b506103236115ed565b34801561074757600080fd5b506103236115f3565b34801561075c57600080fd5b506103d561076b366004612752565b6115f9565b34801561077c57600080fd5b506103d561078b3660046127a4565b6116c7565b34801561079c57600080fd5b506103d56107ab3660046127e4565b6117c1565b3480156107bc57600080fd5b50610323611826565b3480156107d157600080fd5b506103d56107e03660046126d9565b61184b565b3480156107f157600080fd5b5061032361188a565b34801561080657600080fd5b5061037b61081536600461287c565b611894565b34801561082657600080fd5b50610323611917565b34801561083b57600080fd5b5061032361191d565b34801561085057600080fd5b506103d561085f366004612894565b611923565b34801561087057600080fd5b5061035961087f36600461266c565b611adb565b34801561089057600080fd5b506103d561089f36600461287c565b611b09565b3480156108b057600080fd5b506103d56108bf366004612652565b611b2a565b3480156108d057600080fd5b506103d56108df36600461287c565b611b9b565b60006001600160a01b0382166109155760405162461bcd60e51b815260040161090c90612ee6565b60405180910390fd5b506001600160a01b0381166000908152601760205260409020545b919050565b60006001600160e01b0319821663780e9d6360e01b148061095a575061095a82611bbc565b92915050565b60606000805461096f906132af565b80601f016020809104026020016040519081016040528092919081815260200182805461099b906132af565b80156109e85780601f106109bd576101008083540402835291602001916109e8565b820191906000526020600020905b8154815290600101906020018083116109cb57829003601f168201915b5050505050905090565b60006109fd82611bfc565b610a195760405162461bcd60e51b815260040161090c90612e2e565b506000908152600460205260409020546001600160a01b031690565b6000610a4082610fc7565b9050806001600160a01b0316836001600160a01b03161415610a745760405162461bcd60e51b815260040161090c90612fec565b806001600160a01b0316610a86611c19565b6001600160a01b03161480610aa25750610aa28161087f611c19565b610abe5760405162461bcd60e51b815260040161090c90612d09565b610ac88383611c1d565b505050565b60085490565b60115460ff1681565b610aed610ae7611c19565b82611c8b565b610b095760405162461bcd60e51b815260040161090c9061305d565b610ac8838383611d10565b601154610100900460ff1681565b6001600160a01b031660009081526016602052604090205460ff1690565b6000610b4b83611002565b8210610b695760405162461bcd60e51b815260040161090c90612ac8565b506001600160a01b03919091166000908152600660209081526040808320938352929052205490565b33610b9b6115ae565b6001600160a01b031614610bae57600080fd5b600f5447906001600160a01b03166108fc612710610bce846103e861324d565b610bd89190613239565b6040518115909202916000818181858888f19350505050158015610c00573d6000803e3d6000fd5b50610c096115ae565b6001600160a01b03166108fc829081150290604051600060405180830381858888f19350505050158015610c41573d6000803e3d6000fd5b5050565b601254610c50610acd565b1115610c6e5760405162461bcd60e51b815260040161090c90612c19565b610c766115ae565b6001600160a01b0316336001600160a01b031614610cb05760115460ff16610cb05760405162461bcd60e51b815260040161090c90612a91565b610cb86115ae565b6001600160a01b0316826001600160a01b031614610d055760145481610cdd84611002565b610ce79190613221565b1115610d055760405162461bcd60e51b815260040161090c90612be2565b60125481610d11610acd565b610d1b9190613221565b1115610d395760405162461bcd60e51b815260040161090c9061302d565b601254610d44610acd565b1115610d625760405162461bcd60e51b815260040161090c906130fa565b601354811115610d845760405162461bcd60e51b815260040161090c90612fb5565b80600b54610d92919061324d565b341015610db15760405162461bcd60e51b815260040161090c90613127565b60005b81811015610ac857600080516020613372833981519152610dd3610acd565b84604051610de292919061320a565b60405180910390a1610dfb83610df6610acd565b611e3d565b80610e05816132ea565b915050610db4565b610ac88383836040518060200160405280600081525061184b565b60606000610e3583611002565b905060008167ffffffffffffffff811115610e6057634e487b7160e01b600052604160045260246000fd5b604051908082528060200260200182016040528015610e89578160200160208202803683370190505b50905060005b82811015610ede57610ea18582610b40565b828281518110610ec157634e487b7160e01b600052603260045260246000fd5b602090810291909101015280610ed6816132ea565b915050610e8f565b509392505050565b6000610ef06115ae565b905090565b60125481565b33610f046115ae565b6001600160a01b031614610f1757600080fd5b601355565b6000610f26610acd565b8210610f445760405162461bcd60e51b815260040161090c906130ae565b60088281548110610f6557634e487b7160e01b600052603260045260246000fd5b90600052602060002001549050919050565b33610f806115ae565b6001600160a01b031614610f9357600080fd5b8051610c419060109060208401906124d9565b33610faf6115ae565b6001600160a01b031614610fc257600080fd5b600e55565b6000818152600260205260408120546001600160a01b03168061095a5760405162461bcd60e51b815260040161090c90612db0565b600b5481565b60006001600160a01b03821661102a5760405162461bcd60e51b815260040161090c90612d66565b506001600160a01b031660009081526003602052604090205490565b61104e611c19565b6001600160a01b031661105f6115ae565b6001600160a01b0316146110855760405162461bcd60e51b815260040161090c90612eb1565b61108f6000611e57565b565b3361109a6115ae565b6001600160a01b0316146110ad57600080fd5b601180549115156101000261ff0019909216919091179055565b336110d06115ae565b6001600160a01b0316146110e357600080fd5b600e54600d5411156111075760405162461bcd60e51b815260040161090c906129ec565b6000611111610acd565b905060005b600c54811015610c41576000805160206133728339815191526111398284613221565b3360405161114892919061320a565b60405180910390a161115e33610df68385613221565b600d805490600061116e836132ea565b9190505550808061117e906132ea565b915050611116565b3361118f6115ae565b6001600160a01b0316146111a257600080fd5b60005b81811015610ac85760008383838181106111cf57634e487b7160e01b600052603260045260246000fd5b90506020020160208101906111e49190612652565b6001600160a01b0316141561120b5760405162461bcd60e51b815260040161090c90612e7a565b60016016600085858581811061123157634e487b7160e01b600052603260045260246000fd5b90506020020160208101906112469190612652565b6001600160a01b0316815260208101919091526040016000908120805460ff19169215159290921790915560178185858581811061129457634e487b7160e01b600052603260045260246000fd5b90506020020160208101906112a99190612652565b6001600160a01b03166001600160a01b0316815260200190815260200160002054116112d6576000611331565b601760008484848181106112fa57634e487b7160e01b600052603260045260246000fd5b905060200201602081019061130f9190612652565b6001600160a01b03166001600160a01b03168152602001908152602001600020545b508061133c816132ea565b9150506111a5565b3361134d6115ae565b6001600160a01b03161461136057600080fd5b601255565b3361136e6115ae565b6001600160a01b03161461138157600080fd5b60005b81811015610ac8576000805160206133728339815191526113a3610acd565b846040516113b292919061320a565b60405180910390a16113c683610df6610acd565b806113d0816132ea565b915050611384565b6012546113e3610acd565b11156114015760405162461bcd60e51b815260040161090c90612c19565b601154610100900460ff166114285760405162461bcd60e51b815260040161090c90612a23565b3360009081526016602052604090205460ff166114575760405162461bcd60e51b815260040161090c90612a5a565b601254611462610acd565b1061147f5760405162461bcd60e51b815260040161090c90613195565b6015548111156114a15760405162461bcd60e51b815260040161090c906131cc565b601554336000908152601760205260409020546114bf908390613221565b11156114dd5760405162461bcd60e51b815260040161090c9061315e565b80600b546114eb919061324d565b34101561150a5760405162461bcd60e51b815260040161090c90613127565b60005b81811015610c4157336000908152601760205260408120805460019290611535908490613221565b909155506000805160206133728339815191529050611552610acd565b3360405161156192919061320a565b60405180910390a161157533610df6610acd565b8061157f816132ea565b91505061150d565b336115906115ae565b6001600160a01b0316146115a357600080fd5b601555565b60155481565b600a546001600160a01b031690565b336115c66115ae565b6001600160a01b0316146115d957600080fd5b600b55565b60606001805461096f906132af565b600b5490565b60135481565b611601611c19565b6001600160a01b0316826001600160a01b031614156116325760405162461bcd60e51b815260040161090c90612c86565b806005600061163f611c19565b6001600160a01b03908116825260208083019390935260409182016000908120918716808252919093529120805460ff191692151592909217909155611683611c19565b6001600160a01b03167f17307eab39ab6107e8899845ad3d59bd9653f200f220920489ca2b5937696c31836040516116bb91906129ce565b60405180910390a35050565b336116d06115ae565b6001600160a01b0316146116e357600080fd5b60005b81811015610ac857600083838381811061171057634e487b7160e01b600052603260045260246000fd5b90506020020160208101906117259190612652565b6001600160a01b0316141561174c5760405162461bcd60e51b815260040161090c90612e7a565b60006016600085858581811061177257634e487b7160e01b600052603260045260246000fd5b90506020020160208101906117879190612652565b6001600160a01b031681526020810191909152604001600020805460ff1916911515919091179055806117b9816132ea565b9150506116e6565b336117ca6115ae565b6001600160a01b0316146117dd57600080fd5b6011805460ff19168215151790556040517f58655b75d3df612fe99ead00dbf0812d415d35078fe06217a94c0818bb13967f9061181b9083906129ce565b60405180910390a150565b6000336118316115ae565b6001600160a01b03161461184457600080fd5b5060135490565b61185c611856611c19565b83611c8b565b6118785760405162461bcd60e51b815260040161090c9061305d565b61188484848484611ea9565b50505050565b6000610ef0610acd565b606061189f82611bfc565b6118bb5760405162461bcd60e51b815260040161090c90612f66565b60006118c5611edc565b905060008151116118e55760405180602001604052806000815250611910565b806118ef84611eeb565b60405160200161190092919061290a565b6040516020818303038152906040525b9392505050565b60145481565b600c5490565b3361192c6115ae565b6001600160a01b03161461193f57600080fd5b6000611949610acd565b6012549091506119598583613221565b11156119775760405162461bcd60e51b815260040161090c9061302d565b6012548111156119995760405162461bcd60e51b815260040161090c906130fa565b60005b82811015611ad45760008484838181106119c657634e487b7160e01b600052603260045260246000fd5b90506020020160208101906119db9190612652565b6001600160a01b03161415611a025760405162461bcd60e51b815260040161090c90612e7a565b60005b85811015611ac157600080516020613372833981519152611a24610acd565b868685818110611a4457634e487b7160e01b600052603260045260246000fd5b9050602002016020810190611a599190612652565b604051611a6792919061320a565b60405180910390a1611aaf858584818110611a9257634e487b7160e01b600052603260045260246000fd5b9050602002016020810190611aa79190612652565b610df6610acd565b80611ab9816132ea565b915050611a05565b5080611acc816132ea565b91505061199c565b5050505050565b6001600160a01b03918216600090815260056020908152604080832093909416825291909152205460ff1690565b33611b126115ae565b6001600160a01b031614611b2557600080fd5b601455565b611b32611c19565b6001600160a01b0316611b436115ae565b6001600160a01b031614611b695760405162461bcd60e51b815260040161090c90612eb1565b6001600160a01b038116611b8f5760405162461bcd60e51b815260040161090c90612b65565b611b9881611e57565b50565b33611ba46115ae565b6001600160a01b031614611bb757600080fd5b600c55565b60006001600160e01b031982166380ac58cd60e01b1480611bed57506001600160e01b03198216635b5e139f60e01b145b8061095a575061095a82612006565b6000908152600260205260409020546001600160a01b0316151590565b3390565b600081815260046020526040902080546001600160a01b0319166001600160a01b0384169081179091558190611c5282610fc7565b6001600160a01b03167f8c5be1e5ebec7d5bd14f71427d1e84f3dd0314c0f7b2291e5b200ac8c7c3b92560405160405180910390a45050565b6000611c9682611bfc565b611cb25760405162461bcd60e51b815260040161090c90612cbd565b6000611cbd83610fc7565b9050806001600160a01b0316846001600160a01b03161480611cf85750836001600160a01b0316611ced846109f2565b6001600160a01b0316145b80611d085750611d088185611adb565b949350505050565b826001600160a01b0316611d2382610fc7565b6001600160a01b031614611d495760405162461bcd60e51b815260040161090c90612f1d565b6001600160a01b038216611d6f5760405162461bcd60e51b815260040161090c90612c42565b611d7a83838361201f565b611d85600082611c1d565b6001600160a01b0383166000908152600360205260408120805460019290611dae90849061326c565b90915550506001600160a01b0382166000908152600360205260408120805460019290611ddc908490613221565b909155505060008181526002602052604080822080546001600160a01b0319166001600160a01b0386811691821790925591518493918716917fddf252ad1be2c89b69c2b068fc378daa952ba7f163c4a11628f55a4df523b3ef91a4505050565b610c418282604051806020016040528060008152506120a8565b600a80546001600160a01b038381166001600160a01b0319831681179093556040519116919082907f8be0079c531659141344cd1fd0a4f28419497f9722a3daafe3b4186f6b6457e090600090a35050565b611eb4848484611d10565b611ec0848484846120db565b6118845760405162461bcd60e51b815260040161090c90612b13565b60606010805461096f906132af565b606081611f1057506040805180820190915260018152600360fc1b6020820152610930565b8160005b8115611f3a5780611f24816132ea565b9150611f339050600a83613239565b9150611f14565b60008167ffffffffffffffff811115611f6357634e487b7160e01b600052604160045260246000fd5b6040519080825280601f01601f191660200182016040528015611f8d576020820181803683370190505b5090505b8415611d0857611fa260018361326c565b9150611faf600a86613305565b611fba906030613221565b60f81b818381518110611fdd57634e487b7160e01b600052603260045260246000fd5b60200101906001600160f81b031916908160001a905350611fff600a86613239565b9450611f91565b6001600160e01b031981166301ffc9a760e01b14919050565b61202a838383610ac8565b6001600160a01b03831661204657612041816121f6565b612069565b816001600160a01b0316836001600160a01b03161461206957612069838261223a565b6001600160a01b03821661208557612080816122d7565b610ac8565b826001600160a01b0316826001600160a01b031614610ac857610ac882826123b0565b6120b283836123f4565b6120bf60008484846120db565b610ac85760405162461bcd60e51b815260040161090c90612b13565b60006120ef846001600160a01b03166124d3565b156121eb57836001600160a01b031663150b7a0261210b611c19565b8786866040518563ffffffff1660e01b815260040161212d949392919061294d565b602060405180830381600087803b15801561214757600080fd5b505af1925050508015612177575060408051601f3d908101601f191682019092526121749181019061281a565b60015b6121d1573d8080156121a5576040519150601f19603f3d011682016040523d82523d6000602084013e6121aa565b606091505b5080516121c95760405162461bcd60e51b815260040161090c90612b13565b805181602001fd5b6001600160e01b031916630a85bd0160e11b149050611d08565b506001949350505050565b600880546000838152600960205260408120829055600182018355919091527ff3f7a9fe364faab93b216da50a3214154f22a0a2b415b23a84c8169e8b636ee30155565b6000600161224784611002565b612251919061326c565b6000838152600760205260409020549091508082146122a4576001600160a01b03841660009081526006602090815260408083208584528252808320548484528184208190558352600790915290208190555b5060009182526007602090815260408084208490556001600160a01b039094168352600681528383209183525290812055565b6008546000906122e99060019061326c565b6000838152600960205260408120546008805493945090928490811061231f57634e487b7160e01b600052603260045260246000fd5b90600052602060002001549050806008838154811061234e57634e487b7160e01b600052603260045260246000fd5b600091825260208083209091019290925582815260099091526040808220849055858252812055600880548061239457634e487b7160e01b600052603160045260246000fd5b6001900381819060005260206000200160009055905550505050565b60006123bb83611002565b6001600160a01b039093166000908152600660209081526040808320868452825280832085905593825260079052919091209190915550565b6001600160a01b03821661241a5760405162461bcd60e51b815260040161090c90612df9565b61242381611bfc565b156124405760405162461bcd60e51b815260040161090c90612bab565b61244c6000838361201f565b6001600160a01b0382166000908152600360205260408120805460019290612475908490613221565b909155505060008181526002602052604080822080546001600160a01b0319166001600160a01b03861690811790915590518392907fddf252ad1be2c89b69c2b068fc378daa952ba7f163c4a11628f55a4df523b3ef908290a45050565b3b151590565b8280546124e5906132af565b90600052602060002090601f016020900481019282612507576000855561254d565b82601f1061252057805160ff191683800117855561254d565b8280016001018555821561254d579182015b8281111561254d578251825591602001919060010190612532565b5061255992915061255d565b5090565b5b80821115612559576000815560010161255e565b600067ffffffffffffffff8084111561258d5761258d613345565b604051601f8501601f1916810160200182811182821017156125b1576125b1613345565b6040528481529150818385018610156125c957600080fd5b8484602083013760006020868301015250509392505050565b80356001600160a01b038116811461093057600080fd5b60008083601f84011261260a578081fd5b50813567ffffffffffffffff811115612621578182fd5b602083019150836020808302850101111561263b57600080fd5b9250929050565b8035801515811461093057600080fd5b600060208284031215612663578081fd5b611910826125e2565b6000806040838503121561267e578081fd5b612687836125e2565b9150612695602084016125e2565b90509250929050565b6000806000606084860312156126b2578081fd5b6126bb846125e2565b92506126c9602085016125e2565b9150604084013590509250925092565b600080600080608085870312156126ee578081fd5b6126f7856125e2565b9350612705602086016125e2565b925060408501359150606085013567ffffffffffffffff811115612727578182fd5b8501601f81018713612737578182fd5b61274687823560208401612572565b91505092959194509250565b60008060408385031215612764578182fd5b61276d836125e2565b915061269560208401612642565b6000806040838503121561278d578182fd5b612796836125e2565b946020939093013593505050565b600080602083850312156127b6578182fd5b823567ffffffffffffffff8111156127cc578283fd5b6127d8858286016125f9565b90969095509350505050565b6000602082840312156127f5578081fd5b61191082612642565b60006020828403121561280f578081fd5b81356119108161335b565b60006020828403121561282b578081fd5b81516119108161335b565b600060208284031215612847578081fd5b813567ffffffffffffffff81111561285d578182fd5b8201601f8101841361286d578182fd5b611d0884823560208401612572565b60006020828403121561288d578081fd5b5035919050565b6000806000604084860312156128a8578283fd5b83359250602084013567ffffffffffffffff8111156128c5578283fd5b6128d1868287016125f9565b9497909650939450505050565b600081518084526128f6816020860160208601613283565b601f01601f19169290920160200192915050565b6000835161291c818460208801613283565b835190830190612930818360208801613283565b01949350505050565b6001600160a01b0391909116815260200190565b6001600160a01b0385811682528416602082015260408101839052608060608201819052600090612980908301846128de565b9695505050505050565b6020808252825182820181905260009190848201906040850190845b818110156129c2578351835292840192918401916001016129a6565b50909695505050505050565b901515815260200190565b60006020825261191060208301846128de565b6020808252601b908201527f4d61782052657365727665732074616b656e20616c7265616479210000000000604082015260600190565b60208082526018908201527f416c6c6f77204c697374206973206e6f74206163746976650000000000000000604082015260600190565b6020808252601d908201527f596f7520617265206e6f74206f6e2074686520416c6c6f77204c697374000000604082015260600190565b6020808252601d908201527f53616c65206973206e6f74206163746976652063757272656e746c792e000000604082015260600190565b6020808252602b908201527f455243373231456e756d657261626c653a206f776e657220696e646578206f7560408201526a74206f6620626f756e647360a81b606082015260800190565b60208082526032908201527f4552433732313a207472616e7366657220746f206e6f6e20455243373231526560408201527131b2b4bb32b91034b6b83632b6b2b73a32b960711b606082015260800190565b60208082526026908201527f4f776e61626c653a206e6577206f776e657220697320746865207a65726f206160408201526564647265737360d01b606082015260800190565b6020808252601c908201527f4552433732313a20746f6b656e20616c7265616479206d696e74656400000000604082015260600190565b60208082526018908201527f4d617820686f6c64696e672063617020726561636865642e0000000000000000604082015260600190565b6020808252600f908201526e29b0b632903430b99032b73232b21760891b604082015260600190565b60208082526024908201527f4552433732313a207472616e7366657220746f20746865207a65726f206164646040820152637265737360e01b606082015260800190565b60208082526019908201527f4552433732313a20617070726f766520746f2063616c6c657200000000000000604082015260600190565b6020808252602c908201527f4552433732313a206f70657261746f7220717565727920666f72206e6f6e657860408201526b34b9ba32b73a103a37b5b2b760a11b606082015260800190565b60208082526038908201527f4552433732313a20617070726f76652063616c6c6572206973206e6f74206f7760408201527f6e6572206e6f7220617070726f76656420666f7220616c6c0000000000000000606082015260800190565b6020808252602a908201527f4552433732313a2062616c616e636520717565727920666f7220746865207a65604082015269726f206164647265737360b01b606082015260800190565b60208082526029908201527f4552433732313a206f776e657220717565727920666f72206e6f6e657869737460408201526832b73a103a37b5b2b760b91b606082015260800190565b6020808252818101527f4552433732313a206d696e7420746f20746865207a65726f2061646472657373604082015260600190565b6020808252602c908201527f4552433732313a20617070726f76656420717565727920666f72206e6f6e657860408201526b34b9ba32b73a103a37b5b2b760a11b606082015260800190565b60208082526018908201527f43616e2774206164642061206e756c6c20616464726573730000000000000000604082015260600190565b6020808252818101527f4f776e61626c653a2063616c6c6572206973206e6f7420746865206f776e6572604082015260600190565b6020808252601e908201527f5a65726f2061646472657373206e6f74206f6e20416c6c6f77204c6973740000604082015260600190565b60208082526029908201527f4552433732313a207472616e73666572206f6620746f6b656e2074686174206960408201526839903737ba1037bbb760b91b606082015260800190565b6020808252602f908201527f4552433732314d657461646174613a2055524920717565727920666f72206e6f60408201526e3732bc34b9ba32b73a103a37b5b2b760891b606082015260800190565b6020808252601e908201527f45786365656473206d6178696d756d20616c6c6f77656420746f6b656e730000604082015260600190565b60208082526021908201527f4552433732313a20617070726f76616c20746f2063757272656e74206f776e656040820152603960f91b606082015260800190565b6020808252601690820152752a37ba30b61039bab838363c9032bc31b2b2b232b21760511b604082015260600190565b60208082526031908201527f4552433732313a207472616e736665722063616c6c6572206973206e6f74206f6040820152701ddb995c881b9bdc88185c1c1c9bdd9959607a1b606082015260800190565b6020808252602c908201527f455243373231456e756d657261626c653a20676c6f62616c20696e646578206f60408201526b7574206f6620626f756e647360a01b606082015260800190565b6020808252601390820152722a37ba30b61039bab838363c9039b832b73a1760691b604082015260600190565b6020808252601b908201527f496e7375666669656e742045544820616d6f756e742073656e742e0000000000604082015260600190565b6020808252601c908201527f50757263686173652065786365656473206d617820616c6c6f77656400000000604082015260600190565b6020808252601b908201527f416c6c20746f6b656e732068617665206265656e206d696e7465640000000000604082015260600190565b6020808252818101527f43616e6e6f742070757263686173652074686973206d616e7920746f6b656e73604082015260600190565b90815260200190565b9182526001600160a01b0316602082015260400190565b6000821982111561323457613234613319565b500190565b6000826132485761324861332f565b500490565b600081600019048311821515161561326757613267613319565b500290565b60008282101561327e5761327e613319565b500390565b60005b8381101561329e578181015183820152602001613286565b838111156118845750506000910152565b6002810460018216806132c357607f821691505b602082108114156132e457634e487b7160e01b600052602260045260246000fd5b50919050565b60006000198214156132fe576132fe613319565b5060010190565b6000826133145761331461332f565b500690565b634e487b7160e01b600052601160045260246000fd5b634e487b7160e01b600052601260045260246000fd5b634e487b7160e01b600052604160045260246000fd5b6001600160e01b031981168114611b9857600080fdfe55f284809f4c5b7377fbe62f2feeb9686e3834dcae5f3ca955140fe6547cd355a2646970667358221220850f1b6468511af6b90bfe2dd77c619fa165e912ce10fc9f414a2cf4c2eaad9564736f6c63430008000033",
  "immutableReferences": {},
  "source": "// SPDX-License-Identifier: MIT\n\npragma solidity ^0.8.0;\n\nimport \"@openzeppelin/contracts/token/ERC721/extensions/ERC721Enumerable.sol\";\nimport \"@openzeppelin/contracts/access/Ownable.sol\";\n\ncontract CryptoCrewz is ERC721Enumerable, Ownable {\n  uint256 public mintPrice = 0.05 ether;\n\n  uint256 private reserveAtATime = 35;\n\n  uint256 private reservedCount = 0;\n  uint256 private maxReserveCount = 1000;\n\n  address private Address = 0x678c4405ABdfbfaB26dbC55F615e2B924D6E7491;\n\n  string _baseTokenURI;\n\n  bool public isActive = false;\n  bool public isAllowListActive = false;\n\n  uint256 public maximumMintSupply = 10000;\n  uint256 public maximumAllowedTokensPerPurchase = 10;\n  uint256 public maximumAllowedTokensPerWallet = 10;\n  uint256 public allowListMaxMint = 10;\n\n  mapping(address => bool) private _allowList;\n  mapping(address => uint256) private _allowListClaimed;\n\n  event AssetMinted(uint256 tokenId, address sender);\n  event SaleActivation(bool isActive);\n\n  constructor(string memory baseURI) ERC721(\"Crypto Crewz\", \"CC\") {\n    setBaseURI(baseURI);\n  }\n\n  modifier saleIsOpen {\n    require(totalSupply() <= maximumMintSupply, \"Sale has ended.\");\n    _;\n  }\n\n  modifier onlyAuthorized() {\n    require(owner() == msg.sender);\n    _;\n  }\n\n  function setMaximumAllowedTokens(uint256 _count) public onlyAuthorized {\n    maximumAllowedTokensPerPurchase = _count;\n  }\n\n  function setMaximumAllowedTokensPerWallet(uint256 _count) public onlyAuthorized {\n    maximumAllowedTokensPerWallet = _count;\n  }\n\n  function setActive(bool val) public onlyAuthorized {\n    isActive = val;\n    emit SaleActivation(val);\n  }\n\n  function setMaxMintSupply(uint256 maxMintSupply) external  onlyAuthorized {\n    maximumMintSupply = maxMintSupply;\n  }\n\n  function setIsAllowListActive(bool _isAllowListActive) external onlyAuthorized {\n    isAllowListActive = _isAllowListActive;\n  }\n\n  function setAllowListMaxMint(uint256 maxMint) external  onlyAuthorized {\n    allowListMaxMint = maxMint;\n  }\n\n  function addToAllowList(address[] calldata addresses) external onlyAuthorized {\n    for (uint256 i = 0; i < addresses.length; i++) {\n      require(addresses[i] != address(0), \"Can't add a null address\");\n      _allowList[addresses[i]] = true;\n      _allowListClaimed[addresses[i]] > 0 ? _allowListClaimed[addresses[i]] : 0;\n    }\n  }\n\n  function checkIfOnAllowList(address addr) external view returns (bool) {\n    return _allowList[addr];\n  }\n\n  function removeFromAllowList(address[] calldata addresses) external onlyAuthorized {\n    for (uint256 i = 0; i < addresses.length; i++) {\n      require(addresses[i] != address(0), \"Can't add a null address\");\n      _allowList[addresses[i]] = false;\n    }\n  }\n\n  function allowListClaimedBy(address owner) external view returns (uint256){\n    require(owner != address(0), 'Zero address not on Allow List');\n    return _allowListClaimed[owner];\n  }\n\n  function setReserveAtATime(uint256 val) public onlyAuthorized {\n    reserveAtATime = val;\n  }\n\n  function setMaxReserve(uint256 val) public onlyAuthorized {\n    maxReserveCount = val;\n  }\n\n  function setPrice(uint256 _price) public onlyAuthorized {\n    mintPrice = _price;\n  }\n\n  function setBaseURI(string memory baseURI) public onlyAuthorized {\n    _baseTokenURI = baseURI;\n  }\n\n  function getMaximumAllowedTokens() public view onlyAuthorized returns (uint256) {\n    return maximumAllowedTokensPerPurchase;\n  }\n\n  function getPrice() external view returns (uint256) {\n    return mintPrice;\n  }\n\n  function getReserveAtATime() external view returns (uint256) {\n    return reserveAtATime;\n  }\n\n  function getTotalSupply() external view returns (uint256) {\n    return totalSupply();\n  }\n\n  function getContractOwner() public view returns (address) {\n    return owner();\n  }\n\n  function _baseURI() internal view virtual override returns (string memory) {\n    return _baseTokenURI;\n  }\n\n  function reserveNft() public onlyAuthorized {\n    require(reservedCount <= maxReserveCount, \"Max Reserves taken already!\");\n    uint256 supply = totalSupply();\n    uint256 i;\n\n    for (i = 0; i < reserveAtATime; i++) {\n      emit AssetMinted(supply + i, msg.sender);\n      _safeMint(msg.sender, supply + i);\n      reservedCount++;\n    }\n  }\n\n  function reserveToCustomWallet(address _walletAddress, uint256 _count) public onlyAuthorized {\n    for (uint256 i = 0; i < _count; i++) {\n      emit AssetMinted(totalSupply(), _walletAddress);\n      _safeMint(_walletAddress, totalSupply());\n    }\n  }\n\n  function mint(address _to, uint256 _count) public payable saleIsOpen {\n    if (msg.sender != owner()) {\n      require(isActive, \"Sale is not active currently.\");\n    }\n\n    if(_to != owner()) {\n      require(balanceOf(_to) + _count <= maximumAllowedTokensPerWallet, \"Max holding cap reached.\");\n    }\n\n    require(totalSupply() + _count <= maximumMintSupply, \"Total supply exceeded.\");\n    require(totalSupply() <= maximumMintSupply, \"Total supply spent.\");\n    require(\n      _count <= maximumAllowedTokensPerPurchase,\n      \"Exceeds maximum allowed tokens\"\n    );\n    require(msg.value >= mintPrice * _count, \"Insuffient ETH amount sent.\");\n\n    for (uint256 i = 0; i < _count; i++) {\n      emit AssetMinted(totalSupply(), _to);\n      _safeMint(_to, totalSupply());\n    }\n  }\n\n  function batchReserveToMultipleAddresses(uint256 _count, address[] calldata addresses) external onlyAuthorized {\n    uint256 supply = totalSupply();\n\n    require(supply + _count <= maximumMintSupply, \"Total supply exceeded.\");\n    require(supply <= maximumMintSupply, \"Total supply spent.\");\n\n    for (uint256 i = 0; i < addresses.length; i++) {\n      require(addresses[i] != address(0), \"Can't add a null address\");\n\n      for(uint256 j = 0; j < _count; j++) {\n        emit AssetMinted(totalSupply(), addresses[i]);\n        _safeMint(addresses[i], totalSupply());\n      }\n    }\n  }\n\n  function preSaleMint(uint256 _count) public payable saleIsOpen {\n    require(isAllowListActive, 'Allow List is not active');\n    require(_allowList[msg.sender], 'You are not on the Allow List');\n    require(totalSupply() < maximumMintSupply, 'All tokens have been minted');\n    require(_count <= allowListMaxMint, 'Cannot purchase this many tokens');\n    require(_allowListClaimed[msg.sender] + _count <= allowListMaxMint, 'Purchase exceeds max allowed');\n    require(msg.value >= mintPrice * _count, 'Insuffient ETH amount sent.');\n\n    for (uint256 i = 0; i < _count; i++) {\n      _allowListClaimed[msg.sender] += 1;\n      emit AssetMinted(totalSupply(), msg.sender);\n      _safeMint(msg.sender, totalSupply());\n    }\n  }\n\n  function walletOfOwner(address _owner) external view returns(uint256[] memory) {\n    uint tokenCount = balanceOf(_owner);\n    uint256[] memory tokensId = new uint256[](tokenCount);\n\n    for(uint i = 0; i < tokenCount; i++){\n      tokensId[i] = tokenOfOwnerByIndex(_owner, i);\n    }\n    return tokensId;\n  }\n\n  function withdraw() external onlyAuthorized {\n    uint balance = address(this).balance;\n    payable(Address).transfer(balance * 1000 / 10000);\n    payable(owner()).transfer(balance);\n  }\n}",
  "sourcePath": "/Users/chuljyan/PhpstormProjects/smart-contract-8a677c5f7fe74e70de024c5fdae10cf241375f29/contracts/CryptoCrewz.sol",
  "compiler": {
    "name": "solc",
    "version": "0.8.0+commit.c7dfd78e.Emscripten.clang"
  },
  "schemaVersion": "3.3.4",
  "updatedAt": "2021-11-25T16:25:43.324Z",
  "devdoc": {
    "kind": "dev",
    "methods": {
      "approve(address,uint256)": {
        "details": "See {IERC721-approve}."
      },
      "balanceOf(address)": {
        "details": "See {IERC721-balanceOf}."
      },
      "getApproved(uint256)": {
        "details": "See {IERC721-getApproved}."
      },
      "isApprovedForAll(address,address)": {
        "details": "See {IERC721-isApprovedForAll}."
      },
      "name()": {
        "details": "See {IERC721Metadata-name}."
      },
      "owner()": {
        "details": "Returns the address of the current owner."
      },
      "ownerOf(uint256)": {
        "details": "See {IERC721-ownerOf}."
      },
      "renounceOwnership()": {
        "details": "Leaves the contract without owner. It will not be possible to call `onlyOwner` functions anymore. Can only be called by the current owner. NOTE: Renouncing ownership will leave the contract without an owner, thereby removing any functionality that is only available to the owner."
      },
      "safeTransferFrom(address,address,uint256)": {
        "details": "See {IERC721-safeTransferFrom}."
      },
      "safeTransferFrom(address,address,uint256,bytes)": {
        "details": "See {IERC721-safeTransferFrom}."
      },
      "setApprovalForAll(address,bool)": {
        "details": "See {IERC721-setApprovalForAll}."
      },
      "supportsInterface(bytes4)": {
        "details": "See {IERC165-supportsInterface}."
      },
      "symbol()": {
        "details": "See {IERC721Metadata-symbol}."
      },
      "tokenByIndex(uint256)": {
        "details": "See {IERC721Enumerable-tokenByIndex}."
      },
      "tokenOfOwnerByIndex(address,uint256)": {
        "details": "See {IERC721Enumerable-tokenOfOwnerByIndex}."
      },
      "tokenURI(uint256)": {
        "details": "See {IERC721Metadata-tokenURI}."
      },
      "totalSupply()": {
        "details": "See {IERC721Enumerable-totalSupply}."
      },
      "transferFrom(address,address,uint256)": {
        "details": "See {IERC721-transferFrom}."
      },
      "transferOwnership(address)": {
        "details": "Transfers ownership of the contract to a new account (`newOwner`). Can only be called by the current owner."
      }
    },
    "version": 1
  },
  "userdoc": {
    "kind": "user",
    "methods": {},
    "version": 1
  }
}